:020000040000FA
:100000000C9458000C9480000C9480000C94800098
:100010000C9480000C9480000C9480000C94800060
:100020000C9480000C9480000C9480000C94800050
:100030000C9480000C9480000C9480000C94800040
:100040000C941C030C9480000C948C030C94660399
:100050000C9480000C9480000C9480000C94800020
:100060000C94BE030C9480000000000025002800C2
:100070002B00040404040404040402020202020229
:10008000030303030303010204081020408001025C
:1000900004081020010204081020000000080002DB
:1000A0000100000304070000000000000000DD0460
:1000B00011241FBECFEFD8E0DEBFCDBF11E0A0E01E
:1000C000B1E0E0E9FBE002C005900D92A633B10774
:1000D000D9F722E0A6E3B1E001C01D92A038B20733
:1000E000E1F710E0C8E5D0E004C02197FE010E94CE
:1000F000C005C735D107C9F70E9416050C94C6057F
:100100000C94000090E0FC01E656FF4F2491FC01A6
:10011000EA57FF4F3491FC01EE58FF4FE491EE2374
:10012000C9F0222339F0233001F1A8F4213019F16C
:10013000223029F1F0E0EE0FFF1FE859FF4FA591A3
:10014000B4918FB7F894EC91611126C030953E239D
:100150003C938FBF08952730A9F02830C9F0243090
:1001600049F7809180008F7D03C0809180008F7758
:1001700080938000DFCF84B58F7784BDDBCF84B5DB
:100180008F7DFBCF8091B0008F778093B000D2CF6E
:100190008091B0008F7DF9CF3E2BDACF3FB7F89436
:1001A0008091D3019091D401A091D501B091D60155
:1001B00026B5A89B05C02F3F19F00196A11DB11DC2
:1001C0003FBFBA2FA92F982F8827BC01CD01620FFE
:1001D000711D811D911D42E0660F771F881F991FB9
:1001E0004A95D1F708958F929F92AF92BF92CF9286
:1001F000DF92EF92FF920E94CE004B015C0184E1FE
:10020000C82ED12CE12CF12C0E94CE00681979095E
:100210008A099B09683E734081059105A8F321E096
:10022000C21AD108E108F10888EE880E83E0981E12
:10023000A11CB11CC114D104E104F10429F7FF9001
:10024000EF90DF90CF90BF90AF909F908F900895E8
:1002500008950895AF92BF92CF92DF92EF92FF92EE
:100260000F931F93CF93DF936C017B018B01040FDE
:10027000151FEB015E01AE18BF08C017D10759F07A
:100280006991D601ED91FC910190F081E02DC601BC
:100290000995892B79F7C501DF91CF911F910F91B6
:1002A000FF90EF90DF90CF90BF90AF900895FC014A
:1002B000538D448D252F30E0842F90E0821B930BCB
:1002C000541710F0CF96089501970895FC01918D71
:1002D000828D981761F0A28DAE0FBF2FB11D5D9674
:1002E0008C91928D9F5F9F73928F90E008958FEF16
:1002F0009FEF0895FC01918D828D981731F0828DCA
:10030000E80FF11D858D90E008958FEF9FEF089520
:10031000FC01918D228D892F90E0805C9F4F821B84
:1003200091098F739927089587ED91E00E948801C4
:1003300021E0892B09F420E0822F089580E090E0ED
:10034000892B29F00E94940181110C9400000895DA
:10035000FC01A48DA80FB92FB11DA35ABF4F2C913A
:10036000848D90E001968F739927848FA689B78931
:100370002C93A089B1898C91837080648C93938D28
:10038000848D981306C00288F389E02D80818F7DCB
:1003900080830895EF92FF920F931F93CF93DF9383
:1003A000EC0181E0888F9B8D8C8D98131AC0E889B1
:1003B000F989808185FF15C09FB7F894EE89FF8980
:1003C0006083E889F98980818370806480839FBF1E
:1003D00081E090E0DF91CF911F910F91FF90EF901E
:1003E0000895F62E0B8D10E00F5F1F4F0F7311272E
:1003F000E02E8C8D8E110CC00FB607FCFACFE88969
:10040000F989808185FFF5CFCE010E94A801F1CF47
:10041000EB8DEC0FFD2FF11DE35AFF4FF0829FB7DC
:10042000F8940B8FEA89FB8980818062CFCFCF93CC
:10043000DF93EC01888D8823B9F0AA89BB89E8890C
:10044000F9898C9185FD03C0808186FD0DC00FB6B2
:1004500007FCF7CF8C9185FFF2CF808185FFEDCF30
:10046000CE010E94A801E9CFDF91CF91089520919C
:100470007C01260F3327331F21323105ECF4209104
:10048000A001FC0190E080E0243069F082E0089552
:10049000A0917C012191AC01445A5E4FA40FB52F6D
:1004A000B11D2C930196861798F380917C01680FFB
:1004B00060937C0180E0089581E008951092A0018E
:1004C00081E08093A2011092A10161E082E10E948B
:1004D000820061E083E10E948200E9EBF0E080812C
:1004E0008E7F808380818D7F808388E48093B800B5
:1004F00085E48093BC0008950895E091CD0180913A
:10050000CC01E81730F4F0E0EA5CFE4F808190E027
:1005100008958FEF9FEF08959091CD018091CC01C8
:100520002FEF3FEF981748F4E92FF0E0EA5CFE4F19
:10053000208130E09F5F9093CD01C90108958091A3
:10054000CC019091CD01891B990B0895CF93DF9336
:10055000CB01EA01642F0E943702CE01DF91CF91D7
:100560000895CF93DF931F92CDB7DEB7698361E023
:10057000CE0101960E94370281E090E00F90DF915A
:10058000CF91089590E080E00895CF93DF9385EDBB
:100590008093BC008091580190915901A0915A011B
:1005A000B0915B010796A11DB11D23E0B695A795FB
:1005B000979587952A95D1F72091BC0024FD03C01B
:1005C0001092A00136C0409158015091590160919C
:1005D0005A0170915B01452B462B472B69F300971D
:1005E000A105B10541F02AE22A95F1F700C0019773
:1005F000A109B109E1CF8091570191E09093560193
:100600008823B9F0C091B800D091BA008091BC00A5
:100610008A7B8093BC0060E082E10E94820060E0FF
:1006200083E10E9482000E945E02D093BA00C093D0
:10063000B800DF91CF9108951F920F920FB60F92DD
:1006400011242F933F938F939F93AF93BF938091E8
:10065000CF019091D001A091D101B091D201309100
:10066000CE0123E0230F2D3758F50196A11DB11DB2
:100670002093CE018093CF019093D001A093D1011C
:10068000B093D2018091D3019091D401A091D50172
:10069000B091D6010196A11DB11D8093D301909315
:1006A000D401A093D501B093D601BF91AF919F9192
:1006B0008F913F912F910F900FBE0F901F90189523
:1006C00026E8230F0296A11DB11DD2CF1F920F92D3
:1006D0000FB60F9211242F933F934F935F936F9315
:1006E0007F938F939F93AF93BF93EF93FF9387ED88
:1006F00091E00E94A801FF91EF91BF91AF919F916E
:100700008F917F916F915F914F913F912F910F90BA
:100710000FBE0F901F9018951F920F920FB60F9259
:1007200011242F938F939F93EF93FF93E091E70111
:10073000F091E8018081E091ED01F091EE0182FD00
:100740001BC090818091F0018F5F8F732091F10128
:10075000821741F0E091F001F0E0E952FE4F958FF1
:100760008093F001FF91EF919F918F912F910F90C6
:100770000FBE0F901F9018958081F4CF1F920F929B
:100780000FB60F9211242F933F934F935F936F9364
:100790007F938F939F93AF93BF93EF93FF9380913A
:1007A000B900887F803609F44AC0F0F5883209F430
:1007B000A7C018F5803109F49BC0B8F4882309F468
:1007C000F9C0883009F494C0FF91EF91BF91AF91C7
:1007D0009F918F917F916F915F914F913F912F9159
:1007E0000F900FBE0F901F901895883109F488C0A4
:1007F000803251F780939F0114C0803409F49DC06A
:1008000040F48033B9F38833F9F680939F0185EC87
:10081000B0C0803509F485C0883509F496C08834A5
:1008200099F60E94C502D0CF883909F48CC038F5FA
:10083000883729F050F4883611F0803729F683E0A4
:100840008093A00110929E0157C0883809F47BC0A4
:10085000803919F0803809F0B7CF80919E0180323D
:1008600008F071C0E0919E0181E08E0F80939E019F
:100870008091BB00F0E0E258FE4F80833DC0803B9A
:1008800039F0E0F4803A09F479C0883A09F09CCF55
:1008900084E08093A00110927D0110927C01E09190
:1008A000C601F091C701099580917C0181110FC0AB
:1008B00081E080937C0110925C0109C0803C09F4C6
:1008C000A6CF883C09F4A3CF883B09F07DCFE09107
:1008D0007D0181E08E0F80937D01F0E0E45AFE4FB0
:1008E00080818093BB0090917D0180917C0129C023
:1008F0008091C5018093BB0085EC8093BC0064CFE0
:100900009091C4018091C301981758F5E091C401FA
:1009100081E08E0F8093C401F0E0ED55FE4F8081A1
:10092000E9CFE091C40181E08E0F8093C4018091F2
:10093000BB00F0E0ED55FE4F80839091C4018091A3
:10094000C3019817C8F285E8D8CFE091C40181E0CF
:100950008E0F8093C4018091BB00F0E0ED55FE4FF7
:1009600080838091A20181115CCF81E08093A101FD
:1009700084EA8093BC001092A00126CF85EC80937E
:10098000BC001092A00180919E01803230F4E09171
:100990009E01F0E0E258FE4F108260919E0170E0EF
:1009A000E091C801F091C9018EE791E0099510929C
:1009B0009E010ACF10929F0134CFE7EDF1E0138240
:1009C000128288EE93E0A0E0B0E084839583A68352
:1009D000B78324E031E03183208325EC30E0358794
:1009E000248724EC30E03787268720EC30E0318BF9
:1009F000208B21EC30E0338B228B22EC30E0358BE6
:100A0000248B26EC30E0378B268B118E128E138EC2
:100A1000148EE4E7F2E01382128284839583A68326
:100A2000B78386E191E0918380830895789484B5BB
:100A3000826084BD84B5816084BD85B5826085BDDA
:100A400085B5816085BD80916E00816080936E0068
:100A5000109281008091810082608093810080915A
:100A6000810081608093810080918000816080930B
:100A700080008091B10084608093B1008091B000CB
:100A800081608093B00080917A00846080937A00C6
:100A900080917A00826080937A0080917A008160F0
:100AA00080937A0080917A00806880937A00109217
:100AB000C1000E94F300E091E701F091E80182E0BB
:100AC0008083E091E301F091E4011082E091E5017F
:100AD000F091E6018FEC80831092EF01E091EB0141
:100AE000F091EC0186E08083E091E901F091EA0168
:100AF000808180618083E091E901F091EA01808149
:100B000088608083E091E901F091EA01808180684A
:100B10008083E091E901F091EA0180818F7D8083FB
:100B200040E150E064E271E087ED91E00E942A012B
:100B30001092CD011092CC011092CB011092CA01FB
:100B40000E945E0288E291E09093C7018093C60103
:100B500089E291E09093C9018093C8010E945E02EE
:100B600080E78093BA000E94F300C0E0D0E02097B5
:100B7000F1F30E9494018823D1F30E940000F7CF83
:100B8000EE0FFF1F0590F491E02D0994F894FFCF2C
:100B900000000000CA012A015701170288016601FE
:100BA0007A0100000000B102A602C2027C029F028C
:100BB0008C027D022D2D2D2052657374617274207C
:060BC0002D2D2D0A00009E
:107800000C94343C0C94513C0C94513C0C94513CE1
:107810000C94513C0C94513C0C94513C0C94513CB4
:107820000C94513C0C94513C0C94513C0C94513CA4
:107830000C94513C0C94513C0C94513C0C94513C94
:107840000C94513C0C94513C0C94513C0C94513C84
:107850000C94513C0C94513C0C94513C0C94513C74
:107860000C94513C0C94513C11241FBECFEFD8E036
:10787000DEBFCDBF11E0A0E0B1E0ECE9FFE702C060
:1078800005900D92A230B107D9F712E0A2E0B1E065
:1078900001C01D92AD30B107E1F70E942D3D0C945F
:1078A000CC3F0C94003C982F959595959595959582
:1078B000905D8F708A307CF0282F295A8091C0000B
:1078C00085FFFCCF9093C6008091C00085FFFCCF60
:1078D0002093C6000895282F205DF0CF982F809127
:1078E000C00085FFFCCF9093C6000895EF92FF92F1
:1078F0000F931F93EE24FF2487018091C00087FD22
:1079000017C00894E11CF11C011D111D81E4E8164B
:1079100082E4F8068FE0080780E0180770F3E09132
:107920000401F091050109958091C00087FFE9CF1E
:107930008091C6001F910F91FF90EF9008950E94D3
:10794000763C982F8091C00085FFFCCF9093C600B5
:1079500091362CF490330CF09053892F089597555D
:10796000892F08951F930E949F3C182F0E949F3CCF
:107970001295107F810F1F9108951F93182F882350
:1079800021F00E94763C1150E1F71F9108951F935A
:10799000182F0E94763C803249F0809103018F5F5E
:1079A000809303018530C1F01F9108958091C0003C
:1079B00085FFFCCF84E18093C6008091C00085FFE5
:1079C000FCCF1093C6008091C00085FFFCCF80E102
:1079D0008093C6001F910895E0910401F091050184
:1079E00009951F9108950E94763C803241F0809164
:1079F00003018F5F80930301853081F008958091AA
:107A0000C00085FFFCCF84E18093C6008091C00058
:107A100085FFFCCF80E18093C6000895E0910401CA
:107A2000F09105010995089540E951E08823A1F0FE
:107A30002D9A28EE33E0FA013197F1F721503040CA
:107A4000D1F72D9828EE33E0FA013197F1F7215064
:107A50003040D1F7815061F708953F924F925F9285
:107A60006F927F928F929F92AF92BF92CF92DF924E
:107A7000EF92FF920F931F93CF93DF93000080E16B
:107A80008093C4001092C50088E18093C10086E015
:107A90008093C2005098589A259A81E00E94143D24
:107AA00024E1F22E9EE1E92E85E9D82E0FE0C02ECA
:107AB00010E1B12EAA24A394B1E49B2EA6E58A2E50
:107AC000F2E57F2EE0E26E2E79E4572E63E5462E36
:107AD00050E5352E0E94763C8033B1F18133B9F107
:107AE000803409F46FC0813409F476C0823409F41B
:107AF00085C0853409F488C0803531F1823521F1A3
:107B0000813511F1853509F485C0863509F48DC0BC
:107B1000843609F496C0843709F403C1853709F423
:107B200072C1863709F466C0809103018F5F80932C
:107B30000301853079F6E0910401F0910501099582
:107B40000E94763C803351F60E94F33CC3CF0E94E2
:107B5000763C803249F78091C00085FFFCCFF092DF
:107B6000C6008091C00085FFFCCF9092C600809136
:107B7000C00085FFFCCF8092C6008091C00085FFC9
:107B8000FCCF7092C6008091C00085FFFCCF609250
:107B9000C6008091C00085FFFCCF5092C600809146
:107BA000C00085FFFCCF4092C6008091C00085FFD9
:107BB000FCCF3092C6008091C00085FFFCCFB09210
:107BC000C60088CF0E94763C863808F4BDCF0E945C
:107BD000763C0E94F33C7ECF0E94763C803809F4CC
:107BE0009CC0813809F40BC1823809F43CC1883942
:107BF00009F48FC080E00E94C73C6CCF84E10E94F2
:107C0000BD3C0E94F33C66CF85E00E94BD3C0E94D3
:107C1000F33C60CF0E94763C809306010E94763C44
:107C2000809307010E94F33C55CF0E94763C80333D
:107C300009F41DC183E00E94BD3C80E00E94C73C66
:107C400049CF0E94763C809309020E94763C809343
:107C5000080280910C028E7F80930C020E94763C79
:107C6000853409F415C18091080290910902892B8D
:107C700089F000E010E00E94763CF801E85FFE4FDA
:107C800080830F5F1F4F80910802909109020817AF
:107C9000190788F30E94763C803209F045CF809125
:107CA0000C0280FF01C16091060170910701660F0F
:107CB000771F7093070160930601A0910802B091AD
:107CC00009021097C9F0E8E0F1E09B01AD014E0F09
:107CD0005F1FF999FECF32BD21BD819180BDFA9A17
:107CE000F99A2F5F3F4FE417F50799F76A0F7B1F4B
:107CF00070930701609306018091C00085FFFCCF5F
:107D0000F092C6008091C00085FFFCCFB092C60003
:107D1000E1CE83E00E94C73CDDCE82E00E94C73CFA
:107D2000D9CE0E94763C809309020E94763C8093D3
:107D300008028091060190910701880F991F909386
:107D40000701809306010E94763C853409F4A6C0A1
:107D500080910C028E7F80930C020E94763C8032D0
:107D600009F0B8CE8091C00085FFFCCFF092C6002C
:107D7000609108027091090261157105B9F140E046
:107D800050E080910C02A82FA170B82FB27011C0E2
:107D9000BB2309F45CC0E0910601F0910701319624
:107DA000F0930701E09306014F5F5F4F46175707B7
:107DB000E8F4AA2369F3F999FECF209106013091E6
:107DC000070132BD21BDF89A90B58091C00085FFB2
:107DD000FCCF9093C6002F5F3F4F30930701209355
:107DE00006014F5F5F4F4617570718F38091C00099
:107DF00085FDE5CE8091C00085FFF8CFE0CE81E023
:107E00000E94C73C67CE0E94763C803209F08CCE3F
:107E10008091C00085FFFCCFF092C6008091C00029
:107E200085FFFCCFE092C6008091C00085FFFCCFAB
:107E3000D092C6008091C00085FFFCCFC092C600E2
:107E40008091C00085FFFCCFB092C60043CEE09188
:107E50000601F091070194918091C00085FFFCCF4D
:107E60009093C6009CCF80E10E94C73C33CE0E9415
:107E7000763C0E94763C182F0E94763C112309F430
:107E800083C0113009F484C08FE00E94C73C22CE29
:107E900080910C02816080930C02E5CE80910C02EF
:107EA000816080930C0259CF809107018823880F4D
:107EB000880B8A2180930B02809106019091070123
:107EC000880F991F90930701809306018091080203
:107ED00080FF09C080910802909109020196909359
:107EE000090280930802F894F999FECF1127E091D6
:107EF0000601F0910701C8E0D1E08091080290915D
:107F00000902103091F40091570001700130D9F34B
:107F100003E000935700E89500915700017001308D
:107F2000D9F301E100935700E89509901990009169
:107F3000570001700130D9F301E000935700E89534
:107F40001395103498F011270091570001700130FB
:107F5000D9F305E000935700E895009157000170B0
:107F60000130D9F301E100935700E895329602976A
:107F700009F0C7CF103011F00296E5CF112480919F
:107F8000C00085FFB9CEBCCE8EE10E94C73CA2CD19
:0E7F900085E90E94C73C9ECDF894FFCF80008B
:00000001FF
